:100000000C942A000C943F000C943F000C943F0089
:100010000C943F000C943F000C943F000C943F0064
:100020000C943F000C943F000C943F000C943F0054
:100030000C943F000C943F000C943F000C943F0044
:100040000C943F000C943F000C943F000C943F0034
:100050000C943F0011241FBECFE5D8E0DEBFCDBF1A
:1000600010E0A0E6B0E0E8E8F8E002C005900D92EC
:10007000AA36B107D9F70E9473010C9442040C947C
:1000800000000F9317B897B1092B602B67B9206850
:10009000822B282F242B26B94115510531F080B72A
:1000A0008F7180BF80B7852B80BF0F91089597B166
:1000B000907E97B997B1892B87B9369A349BFECF3A
:1000C000349A662319F0613021F008C085B190E0C0
:1000D000089584B125B190E0922B08958FEF9FEFA2
:1000E0000895FB01DC013C9161E070E0022E02C04A
:1000F000660F771F0A94E2F7609536233C93808160
:1001000068236083808150E0BA0102C0660F771FC8
:100110002A95E2F79B01282B20830895FB01DC013F
:100120003C9161E070E0022E02C0660F771F0A94D6
:10013000E2F7362B3C938081609568236083808151
:1001400050E0BA0102C0660F771F2A95E2F79B01C3
:10015000282B208308953F924F925F926F927F9257
:100160008F929F92AF92BF92CF92DF92EF92FF92C7
:100170000F931F93CF93DF93EC01772364F48DE209
:10018000888370956095509541955F4F6F4F7F4F75
:100190003324339401C0312C41155105610571059B
:1001A00059F04A015B0141158AEC58078AE9680752
:1001B0008BE3780728F061C080E3888381E081C009
:1001C0000F2EC12CFAECDF2EFAE9EF2EFBE3FF2E07
:1001D000F02D0F2EFAE04F2E512C612C712CF02DAA
:1001E000C701B601A30192010E94200469017A01AE
:1001F000C501B4010E942004232B242B252B81F35D
:100200008E01030D111DC501B401A70196010E94C5
:100210002004205DF80120833394762E672E582E1B
:10022000492EF1E0CF16D104E104F10409F041C0F8
:1002300020C0C701B601A50194010E9420046901F4
:100240007A018E01030D111D672D762D852D942DBC
:100250000E942004205DF80120833394762E672EBF
:10026000582E492EF1E0CF16D104E104F10409F72C
:1002700002C0832D26C0832D24C08E01030D111DC5
:10028000CB01BA0120E03AEC4AE95BE30E9420048A
:10029000205DF80120833394762E672E582E492E48
:1002A0000F2EC12CFAECDF2EFAE9EF2EFBE3FF2E26
:1002B000F02D0F2EFAE08F2E912CA12CB12CF02DC9
:1002C000B8CFDF91CF911F910F91FF90EF90DF900A
:1002D000CF90BF90AF909F908F907F906F905F90E6
:1002E0004F903F900895CF93DF93CDB7DEB7299716
:1002F0000FB6F894DEBF0FBECDBF00E220E040E0B5
:1003000050E060E484E00E9441000F2EF0E8CF2E20
:10031000F5E2DF2EE12CF12CF02D06E010E020E0DC
:1003200048E160E080E090E00E94BB01198280E635
:1003300090E00E947B022FEF80E792E02150804006
:100340009040E1F700C0000060E081E00E945700AB
:100350008983498150E060E070E0CE0102960E94FE
:10036000AB00682FCE0102960E94660288E690E0FC
:100370000E947B02E0CF9F92AF92BF92CF92DF921A
:10038000EF92FF920F931F93CF93DF93EC01B62E62
:10039000A42E922E21E040E060E370E081E390E043
:1003A0000E948E0020E040E062E370E081E390E094
:1003B0000E947100892D802B80689C2E982A90BC09
:1003C0008AB1A82ABA28BAB88AB1182B1AB98BB13F
:1003D0008D2B8BB9CE0180549109029740F420E017
:1003E00040E066E370E087E390E00E948E00C23454
:1003F000D10530F4C034D105C8F5CD2B29F050C05B
:10040000C115D240E1F04CC0CC0CDD1CEE1CFF1C31
:10041000CC0CDD1CEE1CFF1CA7019601220F331F24
:10042000441F551F220F331F441F551F60E074E205
:1004300084EF90E00E9420042150310933C0CC0C9D
:10044000DD1CEE1CFF1CCC0CDD1CEE1CFF1CA701F0
:100450009601220F331F441F551F60E074E284EFA2
:1004600090E00E942004215031091CC0C701B60150
:100470000E9492039B01AC010E949A029B01AC0175
:1004800060E074E284E79BE40E94FE0220E030E03A
:1004900040E85FE30E9499020E9466039B0102C04C
:1004A00020E030E029B9832F8F7080BDDF91CF919C
:1004B0001F910F91FF90EF90DF90CF90BF90AF9082
:1004C0009F9008958CB95D9BFECF08950F931F9365
:1004D000CF93DF93062F662349F0C82FD92F10E062
:1004E00089910E9462021F5F1013FACFDF91CF91B2
:1004F0001F910F9108951F93CF93DF93EC01888193
:10050000882381F010E00E9462028FE99FE001974A
:10051000F1F700C000001F5FFE01E10FF11D8081B7
:100520008111F1CF80E00E946202DF91CF911F9193
:1005300008955058BB27AA270ED048C139D130F0B2
:100540003ED120F031F49F3F11F41EF42EC10EF481
:10055000E095E7FB24C1E92F4AD180F3BA1762077F
:1005600073078407950718F071F49EF562C10EF4C5
:10057000E0950B2EBA2FA02D0B01B90190010C01B3
:10058000CA01A0011124FF27591B99F0593F50F4CB
:10059000503E68F11A16F040A22F232F342F442723
:1005A000585FF3CF469537952795A795F04053951B
:1005B000C9F77EF41F16BA0B620B730B840BBAF0EB
:1005C0009150A1F0FF0FBB1F661F771F881FC2F756
:1005D0000EC0BA0F621F731F841F48F4879577956A
:1005E0006795B795F7959E3F08F0B3CF9395880F21
:1005F00008F09927EE0F9795879508950CD0E6C0DF
:10060000DED040F0D5D030F021F45F3F19F0C7C004
:10061000511110C1CAC0EBD098F39923C9F35523E7
:10062000B1F3951B550BBB27AA27621773078407E5
:1006300038F09F5F5F4F220F331F441FAA1FA9F39B
:1006400033D00E2E3AF0E0E830D091505040E6958D
:10065000001CCAF729D0FE2F27D0660F771F881FEE
:10066000BB1F261737074807AB07B0E809F0BB0BDD
:10067000802DBF01FF2793585F4F2AF09E3F510501
:1006800068F08DC0D7C05F3FECF3983EDCF38695F1
:1006900077956795B795F7959F5FC9F7880F911D77
:1006A0009695879597F90895E1E0660F771F881F63
:1006B000BB1F621773078407BA0720F0621B730B16
:1006C000840BBA0BEE1F88F7E095089598D088F058
:1006D0009F5790F0B92F9927B751A0F0D1F0660F2E
:1006E000771F881F991F1AF0BA95C9F712C0B13049
:1006F00081F09FD0B1E008959CC0672F782F8827A4
:10070000B85F39F0B93FCCF3869577956795B39587
:10071000D9F73EF490958095709561957F4F8F4FF6
:100720009F4F0895E89409C097FB3EF490958095FB
:10073000709561957F4F8F4F9F4F9923A9F0F92FA7
:1007400096E9BB279395F695879577956795B79525
:10075000F111F8CFFAF4BB0F11F460FF1BC06F5F0B
:100760007F4F8F4F9F4F16C0882311F096E911C01D
:10077000772321F09EE8872F762F05C0662371F03E
:1007800096E8862F70E060E02AF09A95660F771F52
:10079000881FDAF7880F9695879597F9089597F946
:1007A0009F6780E870E060E008959FEF80EC089517
:1007B00000240A9416161706180609060895002440
:1007C0000A9412161306140605060895092E0394BA
:1007D000000C11F4882352F0BB0F40F4BF2B11F42E
:1007E00060FF04C06F5F7F4F8F4F9F4F089557FD8D
:1007F0009058440F551F59F05F3F71F04795880F8F
:1008000097FB991F61F09F3F79F087950895121625
:1008100013061406551FF2CF4695F1DF08C01616D1
:1008200017061806991FF1CF869571056105089482
:100830000895E894BB2766277727CB0197F9089599
:10084000A1E21A2EAA1BBB1BFD010DC0AA1FBB1FD4
:10085000EE1FFF1FA217B307E407F50720F0A21B46
:10086000B30BE40BF50B661F771F881F991F1A94B3
:1008700069F760957095809590959B01AC01BD01DD
:08088000CF010895F894FFCFA9
:0A08880073746172746564000A0065
:00000001FF
